{
  "contractName": "Crud",
  "abi": [
    {
      "constant": true,
      "inputs": [
        {
          "internalType": "uint256",
          "name": "",
          "type": "uint256"
        }
      ],
      "name": "movies",
      "outputs": [
        {
          "internalType": "uint256",
          "name": "id",
          "type": "uint256"
        },
        {
          "internalType": "string",
          "name": "name",
          "type": "string"
        },
        {
          "internalType": "string",
          "name": "director",
          "type": "string"
        },
        {
          "internalType": "uint256",
          "name": "year",
          "type": "uint256"
        }
      ],
      "payable": false,
      "stateMutability": "view",
      "type": "function"
    },
    {
      "constant": true,
      "inputs": [],
      "name": "nextId",
      "outputs": [
        {
          "internalType": "uint256",
          "name": "",
          "type": "uint256"
        }
      ],
      "payable": false,
      "stateMutability": "view",
      "type": "function"
    },
    {
      "constant": false,
      "inputs": [
        {
          "internalType": "string",
          "name": "name",
          "type": "string"
        },
        {
          "internalType": "string",
          "name": "director",
          "type": "string"
        },
        {
          "internalType": "uint256",
          "name": "year",
          "type": "uint256"
        }
      ],
      "name": "create",
      "outputs": [],
      "payable": false,
      "stateMutability": "nonpayable",
      "type": "function"
    },
    {
      "constant": true,
      "inputs": [
        {
          "internalType": "uint256",
          "name": "id",
          "type": "uint256"
        }
      ],
      "name": "read",
      "outputs": [
        {
          "internalType": "uint256",
          "name": "",
          "type": "uint256"
        },
        {
          "internalType": "string",
          "name": "",
          "type": "string"
        },
        {
          "internalType": "string",
          "name": "",
          "type": "string"
        },
        {
          "internalType": "uint256",
          "name": "",
          "type": "uint256"
        }
      ],
      "payable": false,
      "stateMutability": "view",
      "type": "function"
    },
    {
      "constant": false,
      "inputs": [
        {
          "internalType": "uint256",
          "name": "id",
          "type": "uint256"
        },
        {
          "internalType": "string",
          "name": "name",
          "type": "string"
        },
        {
          "internalType": "string",
          "name": "director",
          "type": "string"
        },
        {
          "internalType": "uint256",
          "name": "year",
          "type": "uint256"
        }
      ],
      "name": "update",
      "outputs": [],
      "payable": false,
      "stateMutability": "nonpayable",
      "type": "function"
    },
    {
      "constant": false,
      "inputs": [
        {
          "internalType": "uint256",
          "name": "id",
          "type": "uint256"
        }
      ],
      "name": "destroy",
      "outputs": [],
      "payable": false,
      "stateMutability": "nonpayable",
      "type": "function"
    },
    {
      "constant": true,
      "inputs": [],
      "name": "allMovies",
      "outputs": [
        {
          "internalType": "uint256[]",
          "name": "",
          "type": "uint256[]"
        },
        {
          "internalType": "string[]",
          "name": "",
          "type": "string[]"
        },
        {
          "internalType": "string[]",
          "name": "",
          "type": "string[]"
        },
        {
          "internalType": "uint256[]",
          "name": "",
          "type": "uint256[]"
        }
      ],
      "payable": false,
      "stateMutability": "view",
      "type": "function"
    }
  ],
  "bytecode": "0x60806040526001805534801561001457600080fd5b5061125e806100246000396000f3fe608060405234801561001057600080fd5b506004361061007d5760003560e01c806357a9d1651161005b57806357a9d165146100ed57806361b8ce8c1461010e5780639d1187701461012c578063ed2e5a97146101485761007d565b806334a78e51146100825780633ca6d1001461009e578063404ebf6c146100ba575b600080fd5b61009c60048036036100979190810190610cc7565b61017b565b005b6100b860048036036100b39190810190610c1f565b610223565b005b6100d460048036036100cf9190810190610c9e565b6102db565b6040516100e49493929190611051565b60405180910390f35b6100f5610448565b6040516101059493929190610f62565b60405180910390f35b61011661077d565b6040516101239190610fe3565b60405180910390f35b61014660048036036101419190810190610c9e565b610783565b005b610162600480360361015d9190810190610c9e565b6107e2565b6040516101729493929190610ffe565b60405180910390f35b6000610186856109b7565b9050836000828154811061019657fe5b906000526020600020906004020160010190805190602001906101ba929190610a49565b5082600082815481106101c957fe5b906000526020600020906004020160020190805190602001906101ed929190610a49565b5061076782111561021c57816000828154811061020657fe5b9060005260206000209060040201600301819055505b5050505050565b6000604051806080016040528060015481526020018581526020018481526020018381525090806001815401808255809150509060018203906000526020600020906004020160009091929091909150600082015181600001556020820151816001019080519060200190610299929190610ac9565b5060408201518160020190805190602001906102b6929190610ac9565b5060608201518160030155505050600160008154809291906001019190505550505050565b600081815481106102e857fe5b9060005260206000209060040201600091509050806000015490806001018054600181600116156101000203166002900480601f01602080910402602001604051908101604052809291908181526020018280546001816001161561010002031660029004801561039a5780601f1061036f5761010080835404028352916020019161039a565b820191906000526020600020905b81548152906001019060200180831161037d57829003601f168201915b505050505090806002018054600181600116156101000203166002900480601f0160208091040260200160405190810160405280929190818152602001828054600181600116156101000203166002900480156104385780601f1061040d57610100808354040283529160200191610438565b820191906000526020600020905b81548152906001019060200180831161041b57829003601f168201915b5050505050908060030154905084565b60608060608060606000805490506040519080825280602002602001820160405280156104845781602001602082028038833980820191505090505b50905060606000805490506040519080825280602002602001820160405280156104c257816020015b60608152602001906001900390816104ad5790505b509050606060008054905060405190808252806020026020018201604052801561050057816020015b60608152602001906001900390816104eb5790505b50905060606000805490506040519080825280602002602001820160405280156105395781602001602082028038833980820191505090505b50905060008090505b600080549050811015610766576000818154811061055c57fe5b90600052602060002090600402016000015485828151811061057a57fe5b6020026020010181815250506000818154811061059357fe5b90600052602060002090600402016001018054600181600116156101000203166002900480601f0160208091040260200160405190810160405280929190818152602001828054600181600116156101000203166002900480156106385780601f1061060d57610100808354040283529160200191610638565b820191906000526020600020905b81548152906001019060200180831161061b57829003601f168201915b505050505084828151811061064957fe5b60200260200101819052506000818154811061066157fe5b90600052602060002090600402016002018054600181600116156101000203166002900480601f0160208091040260200160405190810160405280929190818152602001828054600181600116156101000203166002900480156107065780601f106106db57610100808354040283529160200191610706565b820191906000526020600020905b8154815290600101906020018083116106e957829003601f168201915b505050505083828151811061071757fe5b60200260200101819052506000818154811061072f57fe5b90600052602060002090600402016003015482828151811061074d57fe5b6020026020010181815250508080600101915050610542565b508383838397509750975097505050505090919293565b60015481565b600061078e826109b7565b90506000818154811061079d57fe5b90600052602060002090600402016000808201600090556001820160006107c49190610b49565b6002820160006107d49190610b49565b600382016000905550505050565b60006060806000806107f3866109b7565b90506000818154811061080257fe5b9060005260206000209060040201600001546000828154811061082157fe5b90600052602060002090600402016001016000838154811061083f57fe5b90600052602060002090600402016002016000848154811061085d57fe5b906000526020600020906004020160030154828054600181600116156101000203166002900480601f0160208091040260200160405190810160405280929190818152602001828054600181600116156101000203166002900480156109045780601f106108d957610100808354040283529160200191610904565b820191906000526020600020905b8154815290600101906020018083116108e757829003601f168201915b50505050509250818054600181600116156101000203166002900480601f0160208091040260200160405190810160405280929190818152602001828054600181600116156101000203166002900480156109a05780601f10610975576101008083540402835291602001916109a0565b820191906000526020600020905b81548152906001019060200180831161098357829003601f168201915b505050505091509450945094509450509193509193565b600080600090505b600080549050811015610a085782600082815481106109da57fe5b90600052602060002090600402016000015414156109fb5780915050610a44565b80806001019150506109bf565b506040517f08c379a0000000000000000000000000000000000000000000000000000000008152600401610a3b90610fc3565b60405180910390fd5b919050565b828054600181600116156101000203166002900490600052602060002090601f016020900481019282601f10610a8a57805160ff1916838001178555610ab8565b82800160010185558215610ab8579182015b82811115610ab7578251825591602001919060010190610a9c565b5b509050610ac59190610b91565b5090565b828054600181600116156101000203166002900490600052602060002090601f016020900481019282601f10610b0a57805160ff1916838001178555610b38565b82800160010185558215610b38579182015b82811115610b37578251825591602001919060010190610b1c565b5b509050610b459190610b91565b5090565b50805460018160011615610100020316600290046000825580601f10610b6f5750610b8e565b601f016020900490600052602060002090810190610b8d9190610b91565b5b50565b610bb391905b80821115610baf576000816000905550600101610b97565b5090565b90565b600082601f830112610bc757600080fd5b8135610bda610bd5826110d1565b6110a4565b91508082526020830160208301858383011115610bf657600080fd5b610c018382846111b1565b50505092915050565b600081359050610c1981611204565b92915050565b600080600060608486031215610c3457600080fd5b600084013567ffffffffffffffff811115610c4e57600080fd5b610c5a86828701610bb6565b935050602084013567ffffffffffffffff811115610c7757600080fd5b610c8386828701610bb6565b9250506040610c9486828701610c0a565b9150509250925092565b600060208284031215610cb057600080fd5b6000610cbe84828501610c0a565b91505092915050565b60008060008060808587031215610cdd57600080fd5b6000610ceb87828801610c0a565b945050602085013567ffffffffffffffff811115610d0857600080fd5b610d1487828801610bb6565b935050604085013567ffffffffffffffff811115610d3157600080fd5b610d3d87828801610bb6565b9250506060610d4e87828801610c0a565b91505092959194509250565b6000610d668383610e92565b905092915050565b6000610d7a8383610f44565b60208301905092915050565b6000610d918261111d565b610d9b8185611163565b935083602082028501610dad856110fd565b8060005b85811015610de95784840389528151610dca8582610d5a565b9450610dd583611149565b925060208a01995050600181019050610db1565b50829750879550505050505092915050565b6000610e0682611128565b610e108185611174565b9350610e1b8361110d565b8060005b83811015610e4c578151610e338882610d6e565b9750610e3e83611156565b925050600181019050610e1f565b5085935050505092915050565b6000610e648261113e565b610e6e8185611196565b9350610e7e8185602086016111c0565b610e87816111f3565b840191505092915050565b6000610e9d82611133565b610ea78185611185565b9350610eb78185602086016111c0565b610ec0816111f3565b840191505092915050565b6000610ed682611133565b610ee08185611196565b9350610ef08185602086016111c0565b610ef9816111f3565b840191505092915050565b6000610f11601583611196565b91507f4d6f76696520646f6573206e6f742065786973742100000000000000000000006000830152602082019050919050565b610f4d816111a7565b82525050565b610f5c816111a7565b82525050565b60006080820190508181036000830152610f7c8187610dfb565b90508181036020830152610f908186610d86565b90508181036040830152610fa48185610d86565b90508181036060830152610fb88184610dfb565b905095945050505050565b60006020820190508181036000830152610fdc81610f04565b9050919050565b6000602082019050610ff86000830184610f53565b92915050565b60006080820190506110136000830187610f53565b81810360208301526110258186610e59565b905081810360408301526110398185610e59565b90506110486060830184610f53565b95945050505050565b60006080820190506110666000830187610f53565b81810360208301526110788186610ecb565b9050818103604083015261108c8185610ecb565b905061109b6060830184610f53565b95945050505050565b6000604051905081810181811067ffffffffffffffff821117156110c757600080fd5b8060405250919050565b600067ffffffffffffffff8211156110e857600080fd5b601f19601f8301169050602081019050919050565b6000819050602082019050919050565b6000819050602082019050919050565b600081519050919050565b600081519050919050565b600081519050919050565b600081519050919050565b6000602082019050919050565b6000602082019050919050565b600082825260208201905092915050565b600082825260208201905092915050565b600082825260208201905092915050565b600082825260208201905092915050565b6000819050919050565b82818337600083830152505050565b60005b838110156111de5780820151818401526020810190506111c3565b838111156111ed576000848401525b50505050565b6000601f19601f8301169050919050565b61120d816111a7565b811461121857600080fd5b5056fea365627a7a723158206545938febc77ca51015dc73fd755dc90010feea2d5179c6a51fd48c78cff0bb6c6578706572696d656e74616cf564736f6c63430005100040",
  "source": "pragma solidity >=0.4.22 <0.8.0;\r\npragma experimental ABIEncoderV2;\r\n\r\ncontract Crud {\r\n    //\r\n    struct Movie {\r\n        uint id;\r\n        string name;\r\n        string director;\r\n        uint year;\r\n    }\r\n\r\n    Movie[] public movies;\r\n    uint public nextId = 1;\r\n\r\n    function create(string memory name, string memory director, uint year) public {\r\n        movies.push(Movie(nextId, name, director, year));\r\n        nextId++;\r\n    }\r\n\r\n    // Questa function ha più ritorni, perché in solidity le function\r\n    // possono avere più return\r\n    function read(uint id) view public returns(uint, string memory, string memory, uint) {\r\n        uint i = find(id);\r\n        return(movies[i].id, movies[i].name, movies[i].director, movies[i].year);\r\n    }\r\n\r\n    function update(uint id, string memory name, string memory director, uint year) public {\r\n        uint i = find(id);\r\n        movies[i].name = name;\r\n        movies[i].director = director;\r\n        if(year > 1895) {\r\n            movies[i].year = year;\r\n        }\r\n    }\r\n\r\n    function destroy(uint id) public {\r\n        uint i = find(id);\r\n        delete movies[i];\r\n    }\r\n\r\n    // Function per cercare l'user corretto, visibilità \"internal\" perchè non deve \r\n    // essere chiamata dall'esterno del contratto\r\n    function find(uint id) view internal returns(uint) {\r\n        for(uint i = 0; i < movies.length; i++) {\r\n            if(movies[i].id == id) {\r\n                return i;\r\n            }\r\n        }\r\n        revert('Movie does not exist!');\r\n    }\r\n\r\n    function allMovies() view public returns(uint[] memory, string[] memory, string[] memory, uint[] memory) {\r\n        uint[] memory ids = new uint[](movies.length);\r\n        string[] memory titles = new string[](movies.length);\r\n        string[] memory directors = new string[](movies.length);\r\n        uint[] memory releaseYears = new uint[](movies.length);\r\n\r\n        for(uint i = 0; i < movies.length; i++) {\r\n                ids[i] = movies[i].id;\r\n                titles[i] = movies[i].name;\r\n                directors[i] = movies[i].director;\r\n                releaseYears[i] = movies[i].year;\r\n        }\r\n        \r\n        return(ids, titles, directors, releaseYears);\r\n\r\n    }\r\n}",
  "sourcePath": "C:/Users/tomas/Desktop/github/prova/contracts/Crud.sol",
  "compiler": {
    "name": "solc",
    "version": "0.5.16+commit.9c3226ce.Emscripten.clang"
  },
  "schemaVersion": "3.2.3",
  "updatedAt": "2021-06-30T15:00:30.121Z",
  "networkType": "ethereum",
  "devdoc": {
    "methods": {}
  },
  "userdoc": {
    "methods": {}
  }
}